{
  "contractName": "CommonBsToken",
  "abi": [
    {
      "constant": true,
      "inputs": [
        {
          "name": "",
          "type": "uint256"
        }
      ],
      "name": "owners",
      "outputs": [
        {
          "name": "",
          "type": "address"
        }
      ],
      "payable": false,
      "stateMutability": "view",
      "type": "function"
    },
    {
      "constant": true,
      "inputs": [],
      "name": "creator",
      "outputs": [
        {
          "name": "",
          "type": "address"
        }
      ],
      "payable": false,
      "stateMutability": "view",
      "type": "function"
    },
    {
      "constant": true,
      "inputs": [],
      "name": "name",
      "outputs": [
        {
          "name": "",
          "type": "string"
        }
      ],
      "payable": false,
      "stateMutability": "view",
      "type": "function"
    },
    {
      "constant": true,
      "inputs": [],
      "name": "seller",
      "outputs": [
        {
          "name": "",
          "type": "address"
        }
      ],
      "payable": false,
      "stateMutability": "view",
      "type": "function"
    },
    {
      "constant": false,
      "inputs": [
        {
          "name": "_spender",
          "type": "address"
        },
        {
          "name": "_value",
          "type": "uint256"
        }
      ],
      "name": "approve",
      "outputs": [
        {
          "name": "",
          "type": "bool"
        }
      ],
      "payable": false,
      "stateMutability": "nonpayable",
      "type": "function"
    },
    {
      "constant": true,
      "inputs": [],
      "name": "ownerCount",
      "outputs": [
        {
          "name": "",
          "type": "uint256"
        }
      ],
      "payable": false,
      "stateMutability": "view",
      "type": "function"
    },
    {
      "constant": false,
      "inputs": [
        {
          "name": "owner",
          "type": "address"
        }
      ],
      "name": "removeOwner",
      "outputs": [
        {
          "name": "",
          "type": "bool"
        }
      ],
      "payable": false,
      "stateMutability": "nonpayable",
      "type": "function"
    },
    {
      "constant": true,
      "inputs": [],
      "name": "totalSupply",
      "outputs": [
        {
          "name": "",
          "type": "uint256"
        }
      ],
      "payable": false,
      "stateMutability": "view",
      "type": "function"
    },
    {
      "constant": false,
      "inputs": [
        {
          "name": "_from",
          "type": "address"
        },
        {
          "name": "_to",
          "type": "address"
        },
        {
          "name": "_value",
          "type": "uint256"
        }
      ],
      "name": "transferFrom",
      "outputs": [
        {
          "name": "",
          "type": "bool"
        }
      ],
      "payable": false,
      "stateMutability": "nonpayable",
      "type": "function"
    },
    {
      "constant": true,
      "inputs": [
        {
          "name": "owner",
          "type": "address"
        }
      ],
      "name": "isOwner",
      "outputs": [
        {
          "name": "",
          "type": "bool"
        }
      ],
      "payable": false,
      "stateMutability": "view",
      "type": "function"
    },
    {
      "constant": true,
      "inputs": [],
      "name": "decimals",
      "outputs": [
        {
          "name": "",
          "type": "uint8"
        }
      ],
      "payable": false,
      "stateMutability": "view",
      "type": "function"
    },
    {
      "constant": false,
      "inputs": [
        {
          "name": "_spender",
          "type": "address"
        },
        {
          "name": "_value",
          "type": "uint256"
        }
      ],
      "name": "approveAndCall",
      "outputs": [],
      "payable": false,
      "stateMutability": "nonpayable",
      "type": "function"
    },
    {
      "constant": false,
      "inputs": [
        {
          "name": "_value",
          "type": "uint256"
        }
      ],
      "name": "burn",
      "outputs": [
        {
          "name": "",
          "type": "bool"
        }
      ],
      "payable": false,
      "stateMutability": "nonpayable",
      "type": "function"
    },
    {
      "constant": true,
      "inputs": [],
      "name": "tokensSold",
      "outputs": [
        {
          "name": "",
          "type": "uint256"
        }
      ],
      "payable": false,
      "stateMutability": "view",
      "type": "function"
    },
    {
      "constant": true,
      "inputs": [],
      "name": "version",
      "outputs": [
        {
          "name": "",
          "type": "string"
        }
      ],
      "payable": false,
      "stateMutability": "view",
      "type": "function"
    },
    {
      "constant": true,
      "inputs": [],
      "name": "totalSales",
      "outputs": [
        {
          "name": "",
          "type": "uint256"
        }
      ],
      "payable": false,
      "stateMutability": "view",
      "type": "function"
    },
    {
      "constant": false,
      "inputs": [
        {
          "name": "_to",
          "type": "address"
        },
        {
          "name": "_value",
          "type": "uint256"
        }
      ],
      "name": "sell",
      "outputs": [
        {
          "name": "",
          "type": "bool"
        }
      ],
      "payable": false,
      "stateMutability": "nonpayable",
      "type": "function"
    },
    {
      "constant": false,
      "inputs": [
        {
          "name": "owner",
          "type": "address"
        }
      ],
      "name": "addOwner",
      "outputs": [
        {
          "name": "",
          "type": "bool"
        }
      ],
      "payable": false,
      "stateMutability": "nonpayable",
      "type": "function"
    },
    {
      "constant": true,
      "inputs": [
        {
          "name": "_owner",
          "type": "address"
        }
      ],
      "name": "balanceOf",
      "outputs": [
        {
          "name": "balance",
          "type": "uint256"
        }
      ],
      "payable": false,
      "stateMutability": "view",
      "type": "function"
    },
    {
      "constant": false,
      "inputs": [
        {
          "name": "_to",
          "type": "address"
        },
        {
          "name": "_value",
          "type": "uint256"
        }
      ],
      "name": "sellNoDecimals",
      "outputs": [
        {
          "name": "",
          "type": "bool"
        }
      ],
      "payable": false,
      "stateMutability": "nonpayable",
      "type": "function"
    },
    {
      "constant": true,
      "inputs": [],
      "name": "symbol",
      "outputs": [
        {
          "name": "",
          "type": "string"
        }
      ],
      "payable": false,
      "stateMutability": "view",
      "type": "function"
    },
    {
      "constant": false,
      "inputs": [],
      "name": "unlock",
      "outputs": [],
      "payable": false,
      "stateMutability": "nonpayable",
      "type": "function"
    },
    {
      "constant": false,
      "inputs": [
        {
          "name": "_to",
          "type": "address"
        },
        {
          "name": "_value",
          "type": "uint256"
        }
      ],
      "name": "transfer",
      "outputs": [
        {
          "name": "",
          "type": "bool"
        }
      ],
      "payable": false,
      "stateMutability": "nonpayable",
      "type": "function"
    },
    {
      "constant": false,
      "inputs": [
        {
          "name": "newSeller",
          "type": "address"
        }
      ],
      "name": "changeSeller",
      "outputs": [
        {
          "name": "",
          "type": "bool"
        }
      ],
      "payable": false,
      "stateMutability": "nonpayable",
      "type": "function"
    },
    {
      "constant": true,
      "inputs": [],
      "name": "locked",
      "outputs": [
        {
          "name": "",
          "type": "bool"
        }
      ],
      "payable": false,
      "stateMutability": "view",
      "type": "function"
    },
    {
      "constant": true,
      "inputs": [
        {
          "name": "_owner",
          "type": "address"
        },
        {
          "name": "_spender",
          "type": "address"
        }
      ],
      "name": "allowance",
      "outputs": [
        {
          "name": "remaining",
          "type": "uint256"
        }
      ],
      "payable": false,
      "stateMutability": "view",
      "type": "function"
    },
    {
      "constant": false,
      "inputs": [],
      "name": "lock",
      "outputs": [],
      "payable": false,
      "stateMutability": "nonpayable",
      "type": "function"
    },
    {
      "inputs": [
        {
          "name": "_name",
          "type": "string"
        },
        {
          "name": "_symbol",
          "type": "string"
        },
        {
          "name": "_totalSupplyNoDecimals",
          "type": "uint256"
        },
        {
          "name": "_seller",
          "type": "address"
        }
      ],
      "payable": false,
      "stateMutability": "nonpayable",
      "type": "constructor"
    },
    {
      "anonymous": false,
      "inputs": [
        {
          "indexed": true,
          "name": "_seller",
          "type": "address"
        },
        {
          "indexed": true,
          "name": "_buyer",
          "type": "address"
        },
        {
          "indexed": false,
          "name": "_value",
          "type": "uint256"
        }
      ],
      "name": "Sell",
      "type": "event"
    },
    {
      "anonymous": false,
      "inputs": [
        {
          "indexed": true,
          "name": "_oldSeller",
          "type": "address"
        },
        {
          "indexed": true,
          "name": "_newSeller",
          "type": "address"
        }
      ],
      "name": "SellerChanged",
      "type": "event"
    },
    {
      "anonymous": false,
      "inputs": [
        {
          "indexed": true,
          "name": "_newOwner",
          "type": "address"
        }
      ],
      "name": "OwnerAdded",
      "type": "event"
    },
    {
      "anonymous": false,
      "inputs": [
        {
          "indexed": true,
          "name": "_oldOwner",
          "type": "address"
        }
      ],
      "name": "OwnerRemoved",
      "type": "event"
    },
    {
      "anonymous": false,
      "inputs": [
        {
          "indexed": true,
          "name": "_from",
          "type": "address"
        },
        {
          "indexed": true,
          "name": "_to",
          "type": "address"
        },
        {
          "indexed": false,
          "name": "_value",
          "type": "uint256"
        }
      ],
      "name": "Transfer",
      "type": "event"
    },
    {
      "anonymous": false,
      "inputs": [
        {
          "indexed": true,
          "name": "_owner",
          "type": "address"
        },
        {
          "indexed": true,
          "name": "_spender",
          "type": "address"
        },
        {
          "indexed": false,
          "name": "_value",
          "type": "uint256"
        }
      ],
      "name": "Approval",
      "type": "event"
    }
  ],
  "bytecode": "0x60606040526012600960006101000a81548160ff021916908360ff1602179055506040805190810160405280600481526020017f76302e3100000000000000000000000000000000000000000000000000000000815250600a90805190602001906200006d9291906200033f565b5034156200007a57600080fd5b60405162002576380380620025768339810160405280805182019190602001805182019190602001805190602001909190805190602001909190505060003390506001600360008373ffffffffffffffffffffffffffffffffffffffff1673ffffffffffffffffffffffffffffffffffffffff16815260200190815260200160002060006101000a81548160ff02191690831515021790555060048054806001018281620001299190620003c6565b9160005260206000209001600083909190916101000a81548173ffffffffffffffffffffffffffffffffffffffff021916908373ffffffffffffffffffffffffffffffffffffffff16021790555050506001600560006101000a81548160ff02191690831515021790555033600b60006101000a81548173ffffffffffffffffffffffffffffffffffffffff021916908373ffffffffffffffffffffffffffffffffffffffff16021790555080600c60006101000a81548173ffffffffffffffffffffffffffffffffffffffff021916908373ffffffffffffffffffffffffffffffffffffffff16021790555083600690805190602001906200022e9291906200033f565b508260079080519060200190620002479291906200033f565b50670de0b6b3a7640000820260088190555060085460016000600c60009054906101000a900473ffffffffffffffffffffffffffffffffffffffff1673ffffffffffffffffffffffffffffffffffffffff1673ffffffffffffffffffffffffffffffffffffffff16815260200190815260200160002081905550600c60009054906101000a900473ffffffffffffffffffffffffffffffffffffffff1673ffffffffffffffffffffffffffffffffffffffff1660007fddf252ad1be2c89b69c2b068fc378daa952ba7f163c4a11628f55a4df523b3ef6008546040518082815260200191505060405180910390a3505050506200041d565b828054600181600116156101000203166002900490600052602060002090601f016020900481019282601f106200038257805160ff1916838001178555620003b3565b82800160010185558215620003b3579182015b82811115620003b257825182559160200191906001019062000395565b5b509050620003c29190620003f5565b5090565b815481835581811511620003f057818360005260206000209182019101620003ef9190620003f5565b5b505050565b6200041a91905b8082111562000416576000816000905550600101620003fc565b5090565b90565b612149806200042d6000396000f30060606040526004361061015f576000357c0100000000000000000000000000000000000000000000000000000000900463ffffffff168063025e7c271461016457806302d05d3f146101c757806306fdde031461021c57806308551a53146102aa578063095ea7b3146102ff5780630db0262214610359578063173825d91461038257806318160ddd146103d357806323b872dd146103fc5780632f54bf6e14610475578063313ce567146104c65780633177029f146104f557806342966c6814610537578063518ab2a81461057257806354fd4d501461059b5780636605ff66146106295780636c197ff5146106525780637065cb48146106ac57806370a08231146106fd5780637c9473f61461074a57806395d89b41146107a4578063a69df4b514610832578063a9059cbb14610847578063cd3a376a146108a1578063cf309012146108f2578063dd62ed3e1461091f578063f83d08ba1461098b575b600080fd5b341561016f57600080fd5b61018560048080359060200190919050506109a0565b604051808273ffffffffffffffffffffffffffffffffffffffff1673ffffffffffffffffffffffffffffffffffffffff16815260200191505060405180910390f35b34156101d257600080fd5b6101da6109df565b604051808273ffffffffffffffffffffffffffffffffffffffff1673ffffffffffffffffffffffffffffffffffffffff16815260200191505060405180910390f35b341561022757600080fd5b61022f610a05565b6040518080602001828103825283818151815260200191508051906020019080838360005b8381101561026f578082015181840152602081019050610254565b50505050905090810190601f16801561029c5780820380516001836020036101000a031916815260200191505b509250505060405180910390f35b34156102b557600080fd5b6102bd610aa3565b604051808273ffffffffffffffffffffffffffffffffffffffff1673ffffffffffffffffffffffffffffffffffffffff16815260200191505060405180910390f35b341561030a57600080fd5b61033f600480803573ffffffffffffffffffffffffffffffffffffffff16906020019091908035906020019091905050610ac9565b604051808215151515815260200191505060405180910390f35b341561036457600080fd5b61036c610bbb565b6040518082815260200191505060405180910390f35b341561038d57600080fd5b6103b9600480803573ffffffffffffffffffffffffffffffffffffffff16906020019091905050610bc8565b604051808215151515815260200191505060405180910390f35b34156103de57600080fd5b6103e6610de5565b6040518082815260200191505060405180910390f35b341561040757600080fd5b61045b600480803573ffffffffffffffffffffffffffffffffffffffff1690602001909190803573ffffffffffffffffffffffffffffffffffffffff16906020019091908035906020019091905050610deb565b604051808215151515815260200191505060405180910390f35b341561048057600080fd5b6104ac600480803573ffffffffffffffffffffffffffffffffffffffff16906020019091905050610e2d565b604051808215151515815260200191505060405180910390f35b34156104d157600080fd5b6104d9610e83565b604051808260ff1660ff16815260200191505060405180910390f35b341561050057600080fd5b610535600480803573ffffffffffffffffffffffffffffffffffffffff16906020019091908035906020019091905050610e96565b005b341561054257600080fd5b6105586004808035906020019091905050610f66565b604051808215151515815260200191505060405180910390f35b341561057d57600080fd5b6105856110bd565b6040518082815260200191505060405180910390f35b34156105a657600080fd5b6105ae6110c3565b6040518080602001828103825283818151815260200191508051906020019080838360005b838110156105ee5780820151818401526020810190506105d3565b50505050905090810190601f16801561061b5780820380516001836020036101000a031916815260200191505b509250505060405180910390f35b341561063457600080fd5b61063c611161565b6040518082815260200191505060405180910390f35b341561065d57600080fd5b610692600480803573ffffffffffffffffffffffffffffffffffffffff16906020019091908035906020019091905050611167565b604051808215151515815260200191505060405180910390f35b34156106b757600080fd5b6106e3600480803573ffffffffffffffffffffffffffffffffffffffff16906020019091905050611496565b604051808215151515815260200191505060405180910390f35b341561070857600080fd5b610734600480803573ffffffffffffffffffffffffffffffffffffffff169060200190919050506115ef565b6040518082815260200191505060405180910390f35b341561075557600080fd5b61078a600480803573ffffffffffffffffffffffffffffffffffffffff16906020019091908035906020019091905050611638565b604051808215151515815260200191505060405180910390f35b34156107af57600080fd5b6107b7611656565b6040518080602001828103825283818151815260200191508051906020019080838360005b838110156107f75780820151818401526020810190506107dc565b50505050905090810190601f1680156108245780820380516001836020036101000a031916815260200191505b509250505060405180910390f35b341561083d57600080fd5b6108456116f4565b005b341561085257600080fd5b610887600480803573ffffffffffffffffffffffffffffffffffffffff16906020019091908035906020019091905050611725565b604051808215151515815260200191505060405180910390f35b34156108ac57600080fd5b6108d8600480803573ffffffffffffffffffffffffffffffffffffffff16906020019091905050611765565b604051808215151515815260200191505060405180910390f35b34156108fd57600080fd5b610905611a41565b604051808215151515815260200191505060405180910390f35b341561092a57600080fd5b610975600480803573ffffffffffffffffffffffffffffffffffffffff1690602001909190803573ffffffffffffffffffffffffffffffffffffffff16906020019091905050611a54565b6040518082815260200191505060405180910390f35b341561099657600080fd5b61099e611adb565b005b6004818154811015156109af57fe5b90600052602060002090016000915054906101000a900473ffffffffffffffffffffffffffffffffffffffff1681565b600b60009054906101000a900473ffffffffffffffffffffffffffffffffffffffff1681565b60068054600181600116156101000203166002900480601f016020809104026020016040519081016040528092919081815260200182805460018160011615610100020316600290048015610a9b5780601f10610a7057610100808354040283529160200191610a9b565b820191906000526020600020905b815481529060010190602001808311610a7e57829003601f168201915b505050505081565b600c60009054906101000a900473ffffffffffffffffffffffffffffffffffffffff1681565b600081600260003373ffffffffffffffffffffffffffffffffffffffff1673ffffffffffffffffffffffffffffffffffffffff16815260200190815260200160002060008573ffffffffffffffffffffffffffffffffffffffff1673ffffffffffffffffffffffffffffffffffffffff168152602001908152602001600020819055508273ffffffffffffffffffffffffffffffffffffffff163373ffffffffffffffffffffffffffffffffffffffff167f8c5be1e5ebec7d5bd14f71427d1e84f3dd0314c0f7b2291e5b200ac8c7c3b925846040518082815260200191505060405180910390a36001905092915050565b6000600480549050905090565b600080610bd433610e2d565b1515610bdf57600080fd5b610be883610e2d565b15610dda576000600360008573ffffffffffffffffffffffffffffffffffffffff1673ffffffffffffffffffffffffffffffffffffffff16815260200190815260200160002060006101000a81548160ff021916908315150217905550600090505b600160048054905003811015610d75578273ffffffffffffffffffffffffffffffffffffffff16600482815481101515610c8057fe5b906000526020600020900160009054906101000a900473ffffffffffffffffffffffffffffffffffffffff1673ffffffffffffffffffffffffffffffffffffffff161415610d68576004600160048054905003815481101515610cdf57fe5b906000526020600020900160009054906101000a900473ffffffffffffffffffffffffffffffffffffffff16600482815481101515610d1a57fe5b906000526020600020900160006101000a81548173ffffffffffffffffffffffffffffffffffffffff021916908373ffffffffffffffffffffffffffffffffffffffff160217905550610d75565b8080600101915050610c4a565b6001600481818054905003915081610d8d91906120a0565b508273ffffffffffffffffffffffffffffffffffffffff167f58619076adf5bb0943d100ef88d52d7c3fd691b19d3a9071b555b651fbf418da60405160405180910390a260019150610ddf565b600091505b50919050565b60085481565b6000610df633610e2d565b158015610e0f5750600560009054906101000a900460ff165b15610e1957600080fd5b610e24848484611b0c565b90509392505050565b6000600360008373ffffffffffffffffffffffffffffffffffffffff1673ffffffffffffffffffffffffffffffffffffffff16815260200190815260200160002060009054906101000a900460ff169050919050565b600960009054906101000a900460ff1681565b6000829050610ea58383610ac9565b15610f61578073ffffffffffffffffffffffffffffffffffffffff16634bdf1b0e33846040518363ffffffff167c0100000000000000000000000000000000000000000000000000000000028152600401808373ffffffffffffffffffffffffffffffffffffffff1673ffffffffffffffffffffffffffffffffffffffff16815260200182815260200192505050600060405180830381600087803b1515610f4c57600080fd5b6102c65a03f11515610f5d57600080fd5b5050505b505050565b600081600160003373ffffffffffffffffffffffffffffffffffffffff1673ffffffffffffffffffffffffffffffffffffffff1681526020019081526020016000205410158015610fb75750600082115b156110b357611005600160003373ffffffffffffffffffffffffffffffffffffffff1673ffffffffffffffffffffffffffffffffffffffff1681526020019081526020016000205483611e82565b600160003373ffffffffffffffffffffffffffffffffffffffff1673ffffffffffffffffffffffffffffffffffffffff1681526020019081526020016000208190555061105460085483611e82565b60088190555060003373ffffffffffffffffffffffffffffffffffffffff167fddf252ad1be2c89b69c2b068fc378daa952ba7f163c4a11628f55a4df523b3ef846040518082815260200191505060405180910390a3600190506110b8565b600090505b919050565b600d5481565b600a8054600181600116156101000203166002900480601f0160208091040260200160405190810160405280929190818152602001828054600181600116156101000203166002900480156111595780601f1061112e57610100808354040283529160200191611159565b820191906000526020600020905b81548152906001019060200180831161113c57829003601f168201915b505050505081565b600e5481565b600061117233610e2d565b151561117d57600080fd5b8160016000600c60009054906101000a900473ffffffffffffffffffffffffffffffffffffffff1673ffffffffffffffffffffffffffffffffffffffff1673ffffffffffffffffffffffffffffffffffffffff16815260200190815260200160002054101580156111ee5750600082115b1561148b5761125e60016000600c60009054906101000a900473ffffffffffffffffffffffffffffffffffffffff1673ffffffffffffffffffffffffffffffffffffffff1673ffffffffffffffffffffffffffffffffffffffff1681526020019081526020016000205483611e82565b60016000600c60009054906101000a900473ffffffffffffffffffffffffffffffffffffffff1673ffffffffffffffffffffffffffffffffffffffff1673ffffffffffffffffffffffffffffffffffffffff1681526020019081526020016000208190555061130c600160008573ffffffffffffffffffffffffffffffffffffffff1673ffffffffffffffffffffffffffffffffffffffff1681526020019081526020016000205483611e9b565b600160008573ffffffffffffffffffffffffffffffffffffffff1673ffffffffffffffffffffffffffffffffffffffff168152602001908152602001600020819055508273ffffffffffffffffffffffffffffffffffffffff16600c60009054906101000a900473ffffffffffffffffffffffffffffffffffffffff1673ffffffffffffffffffffffffffffffffffffffff167fddf252ad1be2c89b69c2b068fc378daa952ba7f163c4a11628f55a4df523b3ef846040518082815260200191505060405180910390a36113e2600d5483611e9b565b600d819055506113f5600e546001611e9b565b600e819055508273ffffffffffffffffffffffffffffffffffffffff16600c60009054906101000a900473ffffffffffffffffffffffffffffffffffffffff1673ffffffffffffffffffffffffffffffffffffffff167fae98fdb7f4bc601d31354dd8c8ba584bf892418c4df67aba01011867bd88ea27846040518082815260200191505060405180910390a360019050611490565b600090505b92915050565b60006114a133610e2d565b15156114ac57600080fd5b6114b582610e2d565b1580156114d9575060008273ffffffffffffffffffffffffffffffffffffffff1614155b156115e5576001600360008473ffffffffffffffffffffffffffffffffffffffff1673ffffffffffffffffffffffffffffffffffffffff16815260200190815260200160002060006101000a81548160ff0219169083151502179055506004805480600101828161154a91906120cc565b9160005260206000209001600084909190916101000a81548173ffffffffffffffffffffffffffffffffffffffff021916908373ffffffffffffffffffffffffffffffffffffffff160217905550508173ffffffffffffffffffffffffffffffffffffffff167f994a936646fe87ffe4f1e469d3d6aa417d6b855598397f323de5b449f765f0c360405160405180910390a2600190506115ea565b600090505b919050565b6000600160008373ffffffffffffffffffffffffffffffffffffffff1673ffffffffffffffffffffffffffffffffffffffff168152602001908152602001600020549050919050565b600061164e83670de0b6b3a76400008402611167565b905092915050565b60078054600181600116156101000203166002900480601f0160208091040260200160405190810160405280929190818152602001828054600181600116156101000203166002900480156116ec5780601f106116c1576101008083540402835291602001916116ec565b820191906000526020600020905b8154815290600101906020018083116116cf57829003601f168201915b505050505081565b6116fd33610e2d565b151561170857600080fd5b6000600560006101000a81548160ff021916908315150217905550565b600061173033610e2d565b1580156117495750600560009054906101000a900460ff165b1561175357600080fd5b61175d8383611eb9565b905092915050565b600080600061177333610e2d565b151561177e57600080fd5b60008473ffffffffffffffffffffffffffffffffffffffff16141580156117f357508373ffffffffffffffffffffffffffffffffffffffff16600c60009054906101000a900473ffffffffffffffffffffffffffffffffffffffff1673ffffffffffffffffffffffffffffffffffffffff1614155b15156117fe57600080fd5b600c60009054906101000a900473ffffffffffffffffffffffffffffffffffffffff169150600160008373ffffffffffffffffffffffffffffffffffffffff1673ffffffffffffffffffffffffffffffffffffffff1681526020019081526020016000205490506000600160008473ffffffffffffffffffffffffffffffffffffffff1673ffffffffffffffffffffffffffffffffffffffff168152602001908152602001600020819055506118f3600160008673ffffffffffffffffffffffffffffffffffffffff1673ffffffffffffffffffffffffffffffffffffffff1681526020019081526020016000205482611e9b565b600160008673ffffffffffffffffffffffffffffffffffffffff1673ffffffffffffffffffffffffffffffffffffffff168152602001908152602001600020819055508373ffffffffffffffffffffffffffffffffffffffff168273ffffffffffffffffffffffffffffffffffffffff167fddf252ad1be2c89b69c2b068fc378daa952ba7f163c4a11628f55a4df523b3ef836040518082815260200191505060405180910390a383600c60006101000a81548173ffffffffffffffffffffffffffffffffffffffff021916908373ffffffffffffffffffffffffffffffffffffffff1602179055508373ffffffffffffffffffffffffffffffffffffffff168273ffffffffffffffffffffffffffffffffffffffff167fd35d031ef8fbe90a984844820a53576f06a5ac0eb490063bb1e8301c67a6b12760405160405180910390a3600192505050919050565b600560009054906101000a900460ff1681565b6000600260008473ffffffffffffffffffffffffffffffffffffffff1673ffffffffffffffffffffffffffffffffffffffff16815260200190815260200160002060008373ffffffffffffffffffffffffffffffffffffffff1673ffffffffffffffffffffffffffffffffffffffff16815260200190815260200160002054905092915050565b611ae433610e2d565b1515611aef57600080fd5b6001600560006101000a81548160ff021916908315150217905550565b600081600160008673ffffffffffffffffffffffffffffffffffffffff1673ffffffffffffffffffffffffffffffffffffffff1681526020019081526020016000205410158015611bd9575081600260008673ffffffffffffffffffffffffffffffffffffffff1673ffffffffffffffffffffffffffffffffffffffff16815260200190815260200160002060003373ffffffffffffffffffffffffffffffffffffffff1673ffffffffffffffffffffffffffffffffffffffff1681526020019081526020016000205410155b8015611be55750600082115b15611e7657611c33600160008573ffffffffffffffffffffffffffffffffffffffff1673ffffffffffffffffffffffffffffffffffffffff1681526020019081526020016000205483611e9b565b600160008573ffffffffffffffffffffffffffffffffffffffff1673ffffffffffffffffffffffffffffffffffffffff16815260200190815260200160002081905550611cbf600160008673ffffffffffffffffffffffffffffffffffffffff1673ffffffffffffffffffffffffffffffffffffffff1681526020019081526020016000205483611e82565b600160008673ffffffffffffffffffffffffffffffffffffffff1673ffffffffffffffffffffffffffffffffffffffff16815260200190815260200160002081905550611d88600260008673ffffffffffffffffffffffffffffffffffffffff1673ffffffffffffffffffffffffffffffffffffffff16815260200190815260200160002060003373ffffffffffffffffffffffffffffffffffffffff1673ffffffffffffffffffffffffffffffffffffffff1681526020019081526020016000205483611e82565b600260008673ffffffffffffffffffffffffffffffffffffffff1673ffffffffffffffffffffffffffffffffffffffff16815260200190815260200160002060003373ffffffffffffffffffffffffffffffffffffffff1673ffffffffffffffffffffffffffffffffffffffff168152602001908152602001600020819055508273ffffffffffffffffffffffffffffffffffffffff168473ffffffffffffffffffffffffffffffffffffffff167fddf252ad1be2c89b69c2b068fc378daa952ba7f163c4a11628f55a4df523b3ef846040518082815260200191505060405180910390a360019050611e7b565b600090505b9392505050565b6000828211151515611e9057fe5b818303905092915050565b6000808284019050838110151515611eaf57fe5b8091505092915050565b600081600160003373ffffffffffffffffffffffffffffffffffffffff1673ffffffffffffffffffffffffffffffffffffffff1681526020019081526020016000205410158015611f0a5750600082115b1561209557611f58600160003373ffffffffffffffffffffffffffffffffffffffff1673ffffffffffffffffffffffffffffffffffffffff1681526020019081526020016000205483611e82565b600160003373ffffffffffffffffffffffffffffffffffffffff1673ffffffffffffffffffffffffffffffffffffffff16815260200190815260200160002081905550611fe4600160008573ffffffffffffffffffffffffffffffffffffffff1673ffffffffffffffffffffffffffffffffffffffff1681526020019081526020016000205483611e9b565b600160008573ffffffffffffffffffffffffffffffffffffffff1673ffffffffffffffffffffffffffffffffffffffff168152602001908152602001600020819055508273ffffffffffffffffffffffffffffffffffffffff163373ffffffffffffffffffffffffffffffffffffffff167fddf252ad1be2c89b69c2b068fc378daa952ba7f163c4a11628f55a4df523b3ef846040518082815260200191505060405180910390a36001905061209a565b600090505b92915050565b8154818355818115116120c7578183600052602060002091820191016120c691906120f8565b5b505050565b8154818355818115116120f3578183600052602060002091820191016120f291906120f8565b5b505050565b61211a91905b808211156121165760008160009055506001016120fe565b5090565b905600a165627a7a72305820d370ce4be61b2e1f917079bca4405ad120d5e96cde3a4073ae0643d68a81b99d0029",
  "source": "pragma solidity ^0.4.11;\n\ncontract SafeMath {\n\n    function safeMul(uint256 a, uint256 b) internal constant returns (uint256 ) {\n        uint256 c = a * b;\n        assert(a == 0 || c / a == b);\n        return c;\n    }\n\n    function safeDiv(uint256 a, uint256 b) internal constant returns (uint256 ) {\n        assert(b > 0);\n        uint256 c = a / b;\n        assert(a == b * c + a % b);\n        return c;\n    }\n\n    function safeSub(uint256 a, uint256 b) internal constant returns (uint256 ) {\n        assert(b <= a);\n        return a - b;\n    }\n\n    function safeAdd(uint256 a, uint256 b) internal constant returns (uint256 ) {\n        uint256 c = a + b;\n        assert(c >= a);\n        return c;\n    }\n}\n\ncontract ERC20 {\n\n    /* This is a slight change to the ERC20 base standard.\n    function totalSupply() constant returns (uint256 supply);\n    is replaced with:\n    uint256 public totalSupply;\n    This automatically creates a getter function for the totalSupply.\n    This is moved to the base contract since public getter functions are not\n    currently recognised as an implementation of the matching abstract\n    function by the compiler.\n    */\n    /// total amount of tokens\n    uint256 public totalSupply;\n\n    /// @param _owner The address from which the balance will be retrieved\n    /// @return The balance\n    function balanceOf(address _owner) constant returns (uint256 balance);\n\n    /// @notice send `_value` token to `_to` from `msg.sender`\n    /// @param _to The address of the recipient\n    /// @param _value The amount of token to be transferred\n    /// @return Whether the transfer was successful or not\n    function transfer(address _to, uint256 _value) returns (bool success);\n\n    /// @notice send `_value` token to `_to` from `_from` on the condition it is approved by `_from`\n    /// @param _from The address of the sender\n    /// @param _to The address of the recipient\n    /// @param _value The amount of token to be transferred\n    /// @return Whether the transfer was successful or not\n    function transferFrom(address _from, address _to, uint256 _value) returns (bool success);\n\n    /// @notice `msg.sender` approves `_spender` to spend `_value` tokens\n    /// @param _spender The address of the account able to transfer the tokens\n    /// @param _value The amount of tokens to be approved for transfer\n    /// @return Whether the approval was successful or not\n    function approve(address _spender, uint256 _value) returns (bool success);\n\n    /// @param _owner The address of the account owning tokens\n    /// @param _spender The address of the account able to transfer the tokens\n    /// @return Amount of remaining tokens allowed to spent\n    function allowance(address _owner, address _spender) constant returns (uint256 remaining);\n\n    event Transfer(address indexed _from, address indexed _to, uint256 _value);\n    event Approval(address indexed _owner, address indexed _spender, uint256 _value);\n}\n\ncontract StandardToken is ERC20, SafeMath {\n\n    mapping(address => uint256) balances;\n    mapping(address => mapping(address => uint256)) allowed;\n\n    /// @dev Returns number of tokens owned by given address.\n    /// @param _owner Address of token owner.\n    function balanceOf(address _owner) constant returns (uint256 balance) {\n        return balances[_owner];\n    }\n\n    /// @dev Transfers sender's tokens to a given address. Returns success.\n    /// @param _to Address of token receiver.\n    /// @param _value Number of tokens to transfer.\n    function transfer(address _to, uint256 _value) returns (bool) {\n        if (balances[msg.sender] >= _value && _value > 0) {\n            balances[msg.sender] = safeSub(balances[msg.sender], _value);\n            balances[_to] = safeAdd(balances[_to], _value);\n            Transfer(msg.sender, _to, _value);\n            return true;\n        } else return false;\n    }\n\n    /// @dev Allows allowed third party to transfer tokens from one address to another. Returns success.\n    /// @param _from Address from where tokens are withdrawn.\n    /// @param _to Address to where tokens are sent.\n    /// @param _value Number of tokens to transfer.\n    function transferFrom(address _from, address _to, uint256 _value) returns (bool) {\n        if (balances[_from] >= _value && allowed[_from][msg.sender] >= _value && _value > 0) {\n            balances[_to] = safeAdd(balances[_to], _value);\n            balances[_from] = safeSub(balances[_from], _value);\n            allowed[_from][msg.sender] = safeSub(allowed[_from][msg.sender], _value);\n            Transfer(_from, _to, _value);\n            return true;\n        } else return false;\n    }\n\n    /// @dev Sets approved amount of tokens for spender. Returns success.\n    /// @param _spender Address of allowed account.\n    /// @param _value Number of approved tokens.\n    function approve(address _spender, uint256 _value) returns (bool) {\n        allowed[msg.sender][_spender] = _value;\n        Approval(msg.sender, _spender, _value);\n        return true;\n    }\n\n    /// @dev Returns number of allowed tokens for given address.\n    /// @param _owner Address of token owner.\n    /// @param _spender Address of token spender.\n    function allowance(address _owner, address _spender) constant returns (uint256 remaining) {\n        return allowed[_owner][_spender];\n    }\n}\n\ncontract Ownable {\n\n    address public owner;\n    address public pendingOwner;\n\n    function Ownable() {\n        owner = msg.sender;\n    }\n\n    modifier onlyOwner() {\n        require(msg.sender == owner);\n        _;\n    }\n\n    // Safe transfer of ownership in 2 steps. Once called, a newOwner needs to call claimOwnership() to prove ownership.\n    function transferOwnership(address newOwner) onlyOwner {\n        pendingOwner = newOwner;\n    }\n\n    function claimOwnership() {\n        if (msg.sender == pendingOwner) {\n            owner = pendingOwner;\n            pendingOwner = 0;\n        }\n    }\n}\n\ncontract MultiOwnable {\n\n    mapping (address => bool) ownerMap;\n    address[] public owners;\n\n    event OwnerAdded(address indexed _newOwner);\n    event OwnerRemoved(address indexed _oldOwner);\n\n    modifier onlyOwner() {\n        require(isOwner(msg.sender));\n        _;\n    }\n\n    function MultiOwnable() {\n        // Add default owner\n        address owner = msg.sender;\n        ownerMap[owner] = true;\n        owners.push(owner);\n    }\n\n    function ownerCount() public constant returns (uint256) {\n        return owners.length;\n    }\n\n    function isOwner(address owner) public constant returns (bool) {\n        return ownerMap[owner];\n    }\n\n    function addOwner(address owner) onlyOwner returns (bool) {\n        if (!isOwner(owner) && owner != 0) {\n            ownerMap[owner] = true;\n            owners.push(owner);\n\n            OwnerAdded(owner);\n            return true;\n        } else return false;\n    }\n\n    function removeOwner(address owner) onlyOwner returns (bool) {\n        if (isOwner(owner)) {\n            ownerMap[owner] = false;\n            for (uint i = 0; i < owners.length - 1; i++) {\n                if (owners[i] == owner) {\n                    owners[i] = owners[owners.length - 1];\n                    break;\n                }\n            }\n            owners.length -= 1;\n\n            OwnerRemoved(owner);\n            return true;\n        } else return false;\n    }\n}\n\ncontract Pausable is Ownable {\n\n    bool public paused;\n\n    modifier ifNotPaused {\n        require(!paused);\n        _;\n    }\n\n    modifier ifPaused {\n        require(paused);\n        _;\n    }\n\n    // Called by the owner on emergency, triggers paused state\n    function pause() external onlyOwner {\n        paused = true;\n    }\n\n    // Called by the owner on end of emergency, returns to normal state\n    function resume() external onlyOwner ifPaused {\n        paused = false;\n    }\n}\n\ncontract TokenSpender {\n    function receiveApproval(address _from, uint256 _value);\n}\n\ncontract CommonBsToken is StandardToken, MultiOwnable {\n\n    bool public locked;\n\n    string public name;\n    string public symbol;\n    uint256 public totalSupply;\n    uint8 public decimals = 18;\n    string public version = 'v0.1';\n\n    address public creator;\n    address public seller;\n    uint256 public tokensSold;\n    uint256 public totalSales;\n\n    event Sell(address indexed _seller, address indexed _buyer, uint256 _value);\n    event SellerChanged(address indexed _oldSeller, address indexed _newSeller);\n\n    modifier onlyUnlocked() {\n        if (!isOwner(msg.sender) && locked) throw;\n        _;\n    }\n\n    function CommonBsToken(string _name, string _symbol, uint256 _totalSupplyNoDecimals, address _seller) MultiOwnable() {\n\n        // Lock the transfer function during the presale/crowdsale to prevent speculations.\n        locked = true;\n\n        creator = msg.sender;\n        seller = _seller;\n\n        name = _name;\n        symbol = _symbol;\n        totalSupply = _totalSupplyNoDecimals * 1e18;\n\n        balances[seller] = totalSupply;\n        Transfer(0x0, seller, totalSupply);\n    }\n\n    function changeSeller(address newSeller) onlyOwner returns (bool) {\n        require(newSeller != 0x0 && seller != newSeller);\n\n        address oldSeller = seller;\n\n        uint256 unsoldTokens = balances[oldSeller];\n        balances[oldSeller] = 0;\n        balances[newSeller] = safeAdd(balances[newSeller], unsoldTokens);\n        Transfer(oldSeller, newSeller, unsoldTokens);\n\n        seller = newSeller;\n        SellerChanged(oldSeller, newSeller);\n        return true;\n    }\n\n    function sellNoDecimals(address _to, uint256 _value) returns (bool) {\n        return sell(_to, _value * 1e18);\n    }\n\n    function sell(address _to, uint256 _value) onlyOwner returns (bool) {\n        if (balances[seller] >= _value && _value > 0) {\n            balances[seller] = safeSub(balances[seller], _value);\n            balances[_to] = safeAdd(balances[_to], _value);\n            Transfer(seller, _to, _value);\n\n            tokensSold = safeAdd(tokensSold, _value);\n            totalSales = safeAdd(totalSales, 1);\n            Sell(seller, _to, _value);\n            return true;\n        } else return false;\n    }\n\n    function transfer(address _to, uint256 _value) onlyUnlocked returns (bool) {\n        return super.transfer(_to, _value);\n    }\n\n    function transferFrom(address _from, address _to, uint256 _value) onlyUnlocked returns (bool) {\n        return super.transferFrom(_from, _to, _value);\n    }\n\n    function lock() onlyOwner {\n        locked = true;\n    }\n\n    function unlock() onlyOwner {\n        locked = false;\n    }\n\n    function burn(uint256 _value) returns (bool) {\n        if (balances[msg.sender] >= _value && _value > 0) {\n            balances[msg.sender] = safeSub(balances[msg.sender], _value) ;\n            totalSupply = safeSub(totalSupply, _value);\n            Transfer(msg.sender, 0x0, _value);\n            return true;\n        } else return false;\n    }\n\n    /* Approve and then communicate the approved contract in a single tx */\n    function approveAndCall(address _spender, uint256 _value) {\n        TokenSpender spender = TokenSpender(_spender);\n        if (approve(_spender, _value)) {\n            spender.receiveApproval(msg.sender, _value);\n        }\n    }\n}\n\ncontract CommonBsPresale is SafeMath, Ownable, Pausable {\n\n    enum Currency { BTC, LTC, ZEC, DASH, WAVES, USD, EUR }\n\n    // TODO rename to Buyer?\n\n    struct Backer {\n        uint256 weiReceived; // Amount of wei given by backer\n        uint256 tokensSent;  // Amount of tokens received in return to the given amount of ETH.\n    }\n\n    // TODO rename to buyers?\n\n    // (buyer_eth_address -> struct)\n    mapping(address => Backer) public backers;\n\n    // currency_code => (tx_hash => tokens)\n    mapping(uint8 => mapping(bytes32 => uint256)) public externalTxs;\n\n    CommonBsToken public token; // Token contract reference.\n    address public beneficiary; // Address that will receive ETH raised during this crowdsale.\n    address public notifier;    // Address that can this crowdsale about changed external conditions.\n\n    uint256 public minTokensToBuy = 50 * 1e18; // Including bonuses.\n    uint256 public maxCapWei      = 50000 ether;\n\n    uint public tokensPerWei         = 1000; // Ordinary price: 1 ETH = 1000 tokens.\n    uint public tokensPerWeiBonus333 = 1333;\n    uint public tokensPerWeiBonus250 = 1250;\n    uint public tokensPerWeiBonus111 = 1111;\n\n    uint public startTime       = 1510160700; // 2017-11-08T17:05:00Z\n    uint public bonusEndTime333 = 1510333500; // 2017-11-10T17:05:00Z\n    uint public bonusEndTime250 = 1510679100; // 2017-11-14T17:05:00Z\n    uint public endTime         = 1511024700; // 2017-11-18T17:05:00Z\n\n    // Stats for current crowdsale\n\n    uint256 public totalInWei         = 0; // Grand total in wei\n    uint256 public totalTokensSold    = 0; // Total amount of tokens sold during this crowdsale.\n    uint256 public totalEthSales      = 0; // Total amount of ETH contributions during this crowdsale.\n    uint256 public totalExternalSales = 0; // Total amount of external contributions (BTC, LTC, USD, etc.) during this crowdsale.\n    uint256 public weiReceived        = 0; // Total amount of wei received during this crowdsale smart contract.\n\n    uint public finalizedTime = 0; // Unix timestamp when finalize() was called.\n\n    bool public saleEnabled = true;   // if false, then contract will not sell tokens on payment received\n\n    event BeneficiaryChanged(address indexed _oldAddress, address indexed _newAddress);\n    event NotifierChanged(address indexed _oldAddress, address indexed _newAddress);\n\n    event EthReceived(address indexed _buyer, uint256 _amountWei);\n    event ExternalSale(Currency _currency, bytes32 _txIdSha3, address indexed _buyer, uint256 _amountWei, uint256 _tokensE18);\n\n    modifier respectTimeFrame() {\n        require(isSaleOn());\n        _;\n    }\n\n    modifier canNotify() {\n        require(msg.sender == owner || msg.sender == notifier);\n        _;\n    }\n\n    function CommonBsPresale(address _token, address _beneficiary) {\n        token = CommonBsToken(_token);\n        owner = msg.sender;\n        notifier = owner;\n        beneficiary = _beneficiary;\n    }\n\n    // Override this method to mock current time.\n    function getNow() public constant returns (uint) {\n        return now;\n    }\n\n    function setSaleEnabled(bool _enabled) public onlyOwner {\n        saleEnabled = _enabled;\n    }\n\n    function setBeneficiary(address _beneficiary) public onlyOwner {\n        BeneficiaryChanged(beneficiary, _beneficiary);\n        beneficiary = _beneficiary;\n    }\n\n    function setNotifier(address _notifier) public onlyOwner {\n        NotifierChanged(notifier, _notifier);\n        notifier = _notifier;\n    }\n\n    /*\n     * The fallback function corresponds to a donation in ETH\n     */\n    function() public payable {\n        if (saleEnabled) sellTokensForEth(msg.sender, msg.value);\n    }\n\n    function sellTokensForEth(address _buyer, uint256 _amountWei) internal ifNotPaused respectTimeFrame {\n\n        totalInWei = safeAdd(totalInWei, _amountWei);\n        weiReceived = safeAdd(weiReceived, _amountWei);\n        require(totalInWei <= maxCapWei); // If max cap reached.\n\n        uint256 tokensE18 = weiToTokens(_amountWei);\n        require(tokensE18 >= minTokensToBuy);\n\n        require(token.sell(_buyer, tokensE18)); // Transfer tokens to buyer.\n        totalTokensSold = safeAdd(totalTokensSold, tokensE18);\n        totalEthSales++;\n\n        Backer backer = backers[_buyer];\n        backer.tokensSent = safeAdd(backer.tokensSent, tokensE18);\n        backer.weiReceived = safeAdd(backer.weiReceived, _amountWei);  // Update the total wei collected during the crowdfunding for this backer\n\n        EthReceived(_buyer, _amountWei);\n    }\n\n    // Calc how much tokens you can buy at current time.\n    function weiToTokens(uint256 _amountWei) public constant returns (uint256) {\n        return weiToTokensAtTime(_amountWei, getNow());\n    }\n\n    function weiToTokensAtTime(uint256 _amountWei, uint _time) public constant returns (uint256) {\n        uint256 rate = tokensPerWei;\n\n        if (startTime <= _time && _time < bonusEndTime333) rate = tokensPerWeiBonus333;\n        else if (bonusEndTime333 <= _time && _time < bonusEndTime250) rate = tokensPerWeiBonus250;\n        else if (bonusEndTime250 <= _time && _time < endTime) rate = tokensPerWeiBonus111;\n\n        return safeMul(_amountWei, rate);\n    }\n\n    //----------------------------------------------------------------------\n    // Begin of external sales.\n\n    function externalSales(\n        uint8[] _currencies,\n        bytes32[] _txIdSha3,\n        address[] _buyers,\n        uint256[] _amountsWei,\n        uint256[] _tokensE18\n    ) public ifNotPaused canNotify {\n\n        require(_currencies.length > 0);\n        require(_currencies.length == _txIdSha3.length);\n        require(_currencies.length == _buyers.length);\n        require(_currencies.length == _amountsWei.length);\n        require(_currencies.length == _tokensE18.length);\n\n        for (uint i = 0; i < _txIdSha3.length; i++) {\n            _externalSaleSha3(\n                Currency(_currencies[i]),\n                _txIdSha3[i],\n                _buyers[i],\n                _amountsWei[i],\n                _tokensE18[i]\n            );\n        }\n    }\n\n    function _externalSaleSha3(\n        Currency _currency,\n        bytes32 _txIdSha3, // To get bytes32 use keccak256(txId) OR sha3(txId)\n        address _buyer,\n        uint256 _amountWei,\n        uint256 _tokensE18\n    ) internal {\n\n        require(_buyer > 0 && _amountWei > 0 && _tokensE18 > 0);\n\n        var txsByCur = externalTxs[uint8(_currency)];\n\n        // If this foreign transaction has been already processed in this contract.\n        require(txsByCur[_txIdSha3] == 0);\n\n        totalInWei = safeAdd(totalInWei, _amountWei);\n        require(totalInWei <= maxCapWei); // Max cap should not be reached yet.\n\n        require(token.sell(_buyer, _tokensE18)); // Transfer tokens to buyer.\n        totalTokensSold = safeAdd(totalTokensSold, _tokensE18);\n        totalExternalSales++;\n\n        txsByCur[_txIdSha3] = _tokensE18;\n        ExternalSale(_currency, _txIdSha3, _buyer, _amountWei, _tokensE18);\n    }\n\n    // Get id of currency enum. --------------------------------------------\n\n    function btcId() public constant returns (uint8) {\n        return uint8(Currency.BTC);\n    }\n\n    function ltcId() public constant returns (uint8) {\n        return uint8(Currency.LTC);\n    }\n\n    function zecId() public constant returns (uint8) {\n        return uint8(Currency.ZEC);\n    }\n\n    function dashId() public constant returns (uint8) {\n        return uint8(Currency.DASH);\n    }\n\n    function wavesId() public constant returns (uint8) {\n        return uint8(Currency.WAVES);\n    }\n\n    function usdId() public constant returns (uint8) {\n        return uint8(Currency.USD);\n    }\n\n    function eurId() public constant returns (uint8) {\n        return uint8(Currency.EUR);\n    }\n\n    // Get token count by transaction id. ----------------------------------\n\n    function _tokensByTx(Currency _currency, string _txId) internal constant returns (uint256) {\n        return tokensByTx(uint8(_currency), _txId);\n    }\n\n    function tokensByTx(uint8 _currency, string _txId) public constant returns (uint256) {\n        return externalTxs[_currency][keccak256(_txId)];\n    }\n\n    function tokensByBtcTx(string _txId) public constant returns (uint256) {\n        return _tokensByTx(Currency.BTC, _txId);\n    }\n\n    function tokensByLtcTx(string _txId) public constant returns (uint256) {\n        return _tokensByTx(Currency.LTC, _txId);\n    }\n\n    function tokensByZecTx(string _txId) public constant returns (uint256) {\n        return _tokensByTx(Currency.ZEC, _txId);\n    }\n\n    function tokensByDashTx(string _txId) public constant returns (uint256) {\n        return _tokensByTx(Currency.DASH, _txId);\n    }\n\n    function tokensByWavesTx(string _txId) public constant returns (uint256) {\n        return _tokensByTx(Currency.WAVES, _txId);\n    }\n\n    function tokensByUsdTx(string _txId) public constant returns (uint256) {\n        return _tokensByTx(Currency.USD, _txId);\n    }\n\n    function tokensByEurTx(string _txId) public constant returns (uint256) {\n        return _tokensByTx(Currency.EUR, _txId);\n    }\n\n    // End of external sales.\n    //----------------------------------------------------------------------\n\n    function totalSales() public constant returns (uint256) {\n        return safeAdd(totalEthSales, totalExternalSales);\n    }\n\n    function isMaxCapReached() public constant returns (bool) {\n        return totalInWei >= maxCapWei;\n    }\n\n    function isSaleOn() public constant returns (bool) {\n        uint _now = getNow();\n        return startTime <= _now && _now <= endTime;\n    }\n\n    function isSaleOver() public constant returns (bool) {\n        return getNow() > endTime;\n    }\n\n    function isFinalized() public constant returns (bool) {\n        return finalizedTime > 0;\n    }\n\n    /*\n     * Finalize the crowdsale. Raised money can be sent to beneficiary only if crowdsale hit end time or max cap (15m USD).\n     */\n    function finalize() public onlyOwner {\n\n        // Cannot finalise before end day of crowdsale until max cap is reached.\n        require(isMaxCapReached() || isSaleOver());\n\n        beneficiary.transfer(this.balance);\n\n        finalizedTime = getNow();\n    }\n}\n\ncontract JobeumPresale is CommonBsPresale {\n\n    function JobeumPresale() CommonBsPresale(\n        0x08d069ae12b1fe5f651ab56adae0f6c99cb7a15f, // address _token\n        0x76CA9140540988d36f7be7A8b1172E09E6d8A26c  // address _beneficiary\n    ) {}\n}",
  "sourcePath": "/Users/Romanusherenko/Documents/Solidity/Dapp/truffle/ICO/contracts/JobeumPresale.sol",
  "compiler": {
    "name": "solc",
    "version": "0.4.18+commit.9cf6e910.Emscripten.clang"
  },
  "schemaVersion": "1.0.1",
  "updatedAt": "2017-11-19T12:37:03.236Z"
}