{
  "contractName": "MultiOwnable",
  "abi": [
    {
      "constant": true,
      "inputs": [
        {
          "name": "",
          "type": "uint256"
        }
      ],
      "name": "owners",
      "outputs": [
        {
          "name": "",
          "type": "address"
        }
      ],
      "payable": false,
      "stateMutability": "view",
      "type": "function"
    },
    {
      "constant": true,
      "inputs": [],
      "name": "ownerCount",
      "outputs": [
        {
          "name": "",
          "type": "uint256"
        }
      ],
      "payable": false,
      "stateMutability": "view",
      "type": "function"
    },
    {
      "constant": false,
      "inputs": [
        {
          "name": "owner",
          "type": "address"
        }
      ],
      "name": "removeOwner",
      "outputs": [
        {
          "name": "",
          "type": "bool"
        }
      ],
      "payable": false,
      "stateMutability": "nonpayable",
      "type": "function"
    },
    {
      "constant": true,
      "inputs": [
        {
          "name": "owner",
          "type": "address"
        }
      ],
      "name": "isOwner",
      "outputs": [
        {
          "name": "",
          "type": "bool"
        }
      ],
      "payable": false,
      "stateMutability": "view",
      "type": "function"
    },
    {
      "constant": false,
      "inputs": [
        {
          "name": "owner",
          "type": "address"
        }
      ],
      "name": "addOwner",
      "outputs": [
        {
          "name": "",
          "type": "bool"
        }
      ],
      "payable": false,
      "stateMutability": "nonpayable",
      "type": "function"
    },
    {
      "inputs": [],
      "payable": false,
      "stateMutability": "nonpayable",
      "type": "constructor"
    },
    {
      "anonymous": false,
      "inputs": [
        {
          "indexed": true,
          "name": "_newOwner",
          "type": "address"
        }
      ],
      "name": "OwnerAdded",
      "type": "event"
    },
    {
      "anonymous": false,
      "inputs": [
        {
          "indexed": true,
          "name": "_oldOwner",
          "type": "address"
        }
      ],
      "name": "OwnerRemoved",
      "type": "event"
    }
  ],
  "bytecode": "0x6060604052341561000f57600080fd5b600033905060016000808373ffffffffffffffffffffffffffffffffffffffff1673ffffffffffffffffffffffffffffffffffffffff16815260200190815260200160002060006101000a81548160ff0219169083151502179055506001805480600101828161007f91906100d4565b9160005260206000209001600083909190916101000a81548173ffffffffffffffffffffffffffffffffffffffff021916908373ffffffffffffffffffffffffffffffffffffffff1602179055505050610125565b8154818355818115116100fb578183600052602060002091820191016100fa9190610100565b5b505050565b61012291905b8082111561011e576000816000905550600101610106565b5090565b90565b6106ab806101346000396000f30060606040526004361061006d576000357c0100000000000000000000000000000000000000000000000000000000900463ffffffff168063025e7c27146100725780630db02622146100d5578063173825d9146100fe5780632f54bf6e1461014f5780637065cb48146101a0575b600080fd5b341561007d57600080fd5b61009360048080359060200190919050506101f1565b604051808273ffffffffffffffffffffffffffffffffffffffff1673ffffffffffffffffffffffffffffffffffffffff16815260200191505060405180910390f35b34156100e057600080fd5b6100e8610230565b6040518082815260200191505060405180910390f35b341561010957600080fd5b610135600480803573ffffffffffffffffffffffffffffffffffffffff1690602001909190505061023d565b604051808215151515815260200191505060405180910390f35b341561015a57600080fd5b610186600480803573ffffffffffffffffffffffffffffffffffffffff16906020019091905050610455565b604051808215151515815260200191505060405180910390f35b34156101ab57600080fd5b6101d7600480803573ffffffffffffffffffffffffffffffffffffffff169060200190919050506104aa565b604051808215151515815260200191505060405180910390f35b60018181548110151561020057fe5b90600052602060002090016000915054906101000a900473ffffffffffffffffffffffffffffffffffffffff1681565b6000600180549050905090565b60008061024933610455565b151561025457600080fd5b61025d83610455565b1561044a5760008060008573ffffffffffffffffffffffffffffffffffffffff1673ffffffffffffffffffffffffffffffffffffffff16815260200190815260200160002060006101000a81548160ff021916908315150217905550600090505b60018080549050038110156103e6578273ffffffffffffffffffffffffffffffffffffffff166001828154811015156102f357fe5b906000526020600020900160009054906101000a900473ffffffffffffffffffffffffffffffffffffffff1673ffffffffffffffffffffffffffffffffffffffff1614156103d95760018080805490500381548110151561035057fe5b906000526020600020900160009054906101000a900473ffffffffffffffffffffffffffffffffffffffff1660018281548110151561038b57fe5b906000526020600020900160006101000a81548173ffffffffffffffffffffffffffffffffffffffff021916908373ffffffffffffffffffffffffffffffffffffffff1602179055506103e6565b80806001019150506102be565b600180818180549050039150816103fd9190610602565b508273ffffffffffffffffffffffffffffffffffffffff167f58619076adf5bb0943d100ef88d52d7c3fd691b19d3a9071b555b651fbf418da60405160405180910390a26001915061044f565b600091505b50919050565b60008060008373ffffffffffffffffffffffffffffffffffffffff1673ffffffffffffffffffffffffffffffffffffffff16815260200190815260200160002060009054906101000a900460ff169050919050565b60006104b533610455565b15156104c057600080fd5b6104c982610455565b1580156104ed575060008273ffffffffffffffffffffffffffffffffffffffff1614155b156105f85760016000808473ffffffffffffffffffffffffffffffffffffffff1673ffffffffffffffffffffffffffffffffffffffff16815260200190815260200160002060006101000a81548160ff0219169083151502179055506001805480600101828161055d919061062e565b9160005260206000209001600084909190916101000a81548173ffffffffffffffffffffffffffffffffffffffff021916908373ffffffffffffffffffffffffffffffffffffffff160217905550508173ffffffffffffffffffffffffffffffffffffffff167f994a936646fe87ffe4f1e469d3d6aa417d6b855598397f323de5b449f765f0c360405160405180910390a2600190506105fd565b600090505b919050565b81548183558181151161062957818360005260206000209182019101610628919061065a565b5b505050565b81548183558181151161065557818360005260206000209182019101610654919061065a565b5b505050565b61067c91905b80821115610678576000816000905550600101610660565b5090565b905600a165627a7a7230582027d4ff95d16c33b43d1e130cad8cc6444bab67b8c6094e0f2f854b6cd6cbda750029",
  "source": "pragma solidity ^0.4.11;\n\ncontract SafeMath {\n\n    function safeMul(uint256 a, uint256 b) internal constant returns (uint256 ) {\n        uint256 c = a * b;\n        assert(a == 0 || c / a == b);\n        return c;\n    }\n\n    function safeDiv(uint256 a, uint256 b) internal constant returns (uint256 ) {\n        assert(b > 0);\n        uint256 c = a / b;\n        assert(a == b * c + a % b);\n        return c;\n    }\n\n    function safeSub(uint256 a, uint256 b) internal constant returns (uint256 ) {\n        assert(b <= a);\n        return a - b;\n    }\n\n    function safeAdd(uint256 a, uint256 b) internal constant returns (uint256 ) {\n        uint256 c = a + b;\n        assert(c >= a);\n        return c;\n    }\n}\n\ncontract ERC20 {\n\n    /* This is a slight change to the ERC20 base standard.\n    function totalSupply() constant returns (uint256 supply);\n    is replaced with:\n    uint256 public totalSupply;\n    This automatically creates a getter function for the totalSupply.\n    This is moved to the base contract since public getter functions are not\n    currently recognised as an implementation of the matching abstract\n    function by the compiler.\n    */\n    /// total amount of tokens\n    uint256 public totalSupply;\n\n    /// @param _owner The address from which the balance will be retrieved\n    /// @return The balance\n    function balanceOf(address _owner) constant returns (uint256 balance);\n\n    /// @notice send `_value` token to `_to` from `msg.sender`\n    /// @param _to The address of the recipient\n    /// @param _value The amount of token to be transferred\n    /// @return Whether the transfer was successful or not\n    function transfer(address _to, uint256 _value) returns (bool success);\n\n    /// @notice send `_value` token to `_to` from `_from` on the condition it is approved by `_from`\n    /// @param _from The address of the sender\n    /// @param _to The address of the recipient\n    /// @param _value The amount of token to be transferred\n    /// @return Whether the transfer was successful or not\n    function transferFrom(address _from, address _to, uint256 _value) returns (bool success);\n\n    /// @notice `msg.sender` approves `_spender` to spend `_value` tokens\n    /// @param _spender The address of the account able to transfer the tokens\n    /// @param _value The amount of tokens to be approved for transfer\n    /// @return Whether the approval was successful or not\n    function approve(address _spender, uint256 _value) returns (bool success);\n\n    /// @param _owner The address of the account owning tokens\n    /// @param _spender The address of the account able to transfer the tokens\n    /// @return Amount of remaining tokens allowed to spent\n    function allowance(address _owner, address _spender) constant returns (uint256 remaining);\n\n    event Transfer(address indexed _from, address indexed _to, uint256 _value);\n    event Approval(address indexed _owner, address indexed _spender, uint256 _value);\n}\n\ncontract StandardToken is ERC20, SafeMath {\n\n    mapping(address => uint256) balances;\n    mapping(address => mapping(address => uint256)) allowed;\n\n    /// @dev Returns number of tokens owned by given address.\n    /// @param _owner Address of token owner.\n    function balanceOf(address _owner) constant returns (uint256 balance) {\n        return balances[_owner];\n    }\n\n    /// @dev Transfers sender's tokens to a given address. Returns success.\n    /// @param _to Address of token receiver.\n    /// @param _value Number of tokens to transfer.\n    function transfer(address _to, uint256 _value) returns (bool) {\n        if (balances[msg.sender] >= _value && _value > 0) {\n            balances[msg.sender] = safeSub(balances[msg.sender], _value);\n            balances[_to] = safeAdd(balances[_to], _value);\n            Transfer(msg.sender, _to, _value);\n            return true;\n        } else return false;\n    }\n\n    /// @dev Allows allowed third party to transfer tokens from one address to another. Returns success.\n    /// @param _from Address from where tokens are withdrawn.\n    /// @param _to Address to where tokens are sent.\n    /// @param _value Number of tokens to transfer.\n    function transferFrom(address _from, address _to, uint256 _value) returns (bool) {\n        if (balances[_from] >= _value && allowed[_from][msg.sender] >= _value && _value > 0) {\n            balances[_to] = safeAdd(balances[_to], _value);\n            balances[_from] = safeSub(balances[_from], _value);\n            allowed[_from][msg.sender] = safeSub(allowed[_from][msg.sender], _value);\n            Transfer(_from, _to, _value);\n            return true;\n        } else return false;\n    }\n\n    /// @dev Sets approved amount of tokens for spender. Returns success.\n    /// @param _spender Address of allowed account.\n    /// @param _value Number of approved tokens.\n    function approve(address _spender, uint256 _value) returns (bool) {\n        allowed[msg.sender][_spender] = _value;\n        Approval(msg.sender, _spender, _value);\n        return true;\n    }\n\n    /// @dev Returns number of allowed tokens for given address.\n    /// @param _owner Address of token owner.\n    /// @param _spender Address of token spender.\n    function allowance(address _owner, address _spender) constant returns (uint256 remaining) {\n        return allowed[_owner][_spender];\n    }\n}\n\ncontract MultiOwnable {\n\n    mapping (address => bool) ownerMap;\n    address[] public owners;\n\n    event OwnerAdded(address indexed _newOwner);\n    event OwnerRemoved(address indexed _oldOwner);\n\n    modifier onlyOwner() {\n        require(isOwner(msg.sender));\n        _;\n    }\n\n    function MultiOwnable() {\n        // Add default owner\n        address owner = msg.sender;\n        ownerMap[owner] = true;\n        owners.push(owner);\n    }\n\n    function ownerCount() public constant returns (uint256) {\n        return owners.length;\n    }\n\n    function isOwner(address owner) public constant returns (bool) {\n        return ownerMap[owner];\n    }\n\n    function addOwner(address owner) onlyOwner returns (bool) {\n        if (!isOwner(owner) && owner != 0) {\n            ownerMap[owner] = true;\n            owners.push(owner);\n\n            OwnerAdded(owner);\n            return true;\n        } else return false;\n    }\n\n    function removeOwner(address owner) onlyOwner returns (bool) {\n        if (isOwner(owner)) {\n            ownerMap[owner] = false;\n            for (uint i = 0; i < owners.length - 1; i++) {\n                if (owners[i] == owner) {\n                    owners[i] = owners[owners.length - 1];\n                    break;\n                }\n            }\n            owners.length -= 1;\n\n            OwnerRemoved(owner);\n            return true;\n        } else return false;\n    }\n}\n\ncontract TokenSpender {\n    function receiveApproval(address _from, uint256 _value);\n}\n\ncontract CommonBsToken is StandardToken, MultiOwnable {\n\n    bool public locked;\n\n    string public name;\n    string public symbol;\n    uint256 public totalSupply;\n    uint8 public decimals = 18;\n    string public version = 'v0.1';\n\n    address public creator;\n    address public seller;\n    uint256 public tokensSold;\n    uint256 public totalSales;\n\n    event Sell(address indexed _seller, address indexed _buyer, uint256 _value);\n    event SellerChanged(address indexed _oldSeller, address indexed _newSeller);\n\n    modifier onlyUnlocked() {\n        if (!isOwner(msg.sender) && locked) throw;\n        _;\n    }\n\n    function CommonBsToken(string _name, string _symbol, uint256 _totalSupplyNoDecimals, address _seller) MultiOwnable() {\n\n        // Lock the transfer function during the presale/crowdsale to prevent speculations.\n        locked = true;\n\n        creator = msg.sender;\n        seller = _seller;\n\n        name = _name;\n        symbol = _symbol;\n        totalSupply = _totalSupplyNoDecimals * 1e18;\n\n        balances[seller] = totalSupply;\n        Transfer(0x0, seller, totalSupply);\n    }\n\n    function changeSeller(address newSeller) onlyOwner returns (bool) {\n        require(newSeller != 0x0 && seller != newSeller);\n\n        address oldSeller = seller;\n\n        uint256 unsoldTokens = balances[oldSeller];\n        balances[oldSeller] = 0;\n        balances[newSeller] = safeAdd(balances[newSeller], unsoldTokens);\n        Transfer(oldSeller, newSeller, unsoldTokens);\n\n        seller = newSeller;\n        SellerChanged(oldSeller, newSeller);\n        return true;\n    }\n\n    function sellNoDecimals(address _to, uint256 _value) returns (bool) {\n        return sell(_to, _value * 1e18);\n    }\n\n    function sell(address _to, uint256 _value) onlyOwner returns (bool) {\n        if (balances[seller] >= _value && _value > 0) {\n            balances[seller] = safeSub(balances[seller], _value);\n            balances[_to] = safeAdd(balances[_to], _value);\n            Transfer(seller, _to, _value);\n\n            tokensSold = safeAdd(tokensSold, _value);\n            totalSales = safeAdd(totalSales, 1);\n            Sell(seller, _to, _value);\n            return true;\n        } else return false;\n    }\n\n    function transfer(address _to, uint256 _value) onlyUnlocked returns (bool) {\n        return super.transfer(_to, _value);\n    }\n\n    function transferFrom(address _from, address _to, uint256 _value) onlyUnlocked returns (bool) {\n        return super.transferFrom(_from, _to, _value);\n    }\n\n    function lock() onlyOwner {\n        locked = true;\n    }\n\n    function unlock() onlyOwner {\n        locked = false;\n    }\n\n    function burn(uint256 _value) returns (bool) {\n        if (balances[msg.sender] >= _value && _value > 0) {\n            balances[msg.sender] = safeSub(balances[msg.sender], _value) ;\n            totalSupply = safeSub(totalSupply, _value);\n            Transfer(msg.sender, 0x0, _value);\n            return true;\n        } else return false;\n    }\n\n    /* Approve and then communicate the approved contract in a single tx */\n    function approveAndCall(address _spender, uint256 _value) {\n        TokenSpender spender = TokenSpender(_spender);\n        if (approve(_spender, _value)) {\n            spender.receiveApproval(msg.sender, _value);\n        }\n    }\n}\n\ncontract JobeumToken is CommonBsToken {\n\n    function JobeumToken() CommonBsToken(\n        'JobToken',\n        'JBT',\n        923076925,  // max token supply\n        0x9ed53b5d4521cb05989df7618a8e66fbffcae952 // address _seller (main holder of all tokens)\n    ) { }\n}\n",
  "sourcePath": "/Users/Romanusherenko/Documents/Solidity/Dapp/truffle/ICO/contracts/JobeumToken.sol",
  "compiler": {
    "name": "solc",
    "version": "0.4.18+commit.9cf6e910.Emscripten.clang"
  },
  "schemaVersion": "1.0.1",
  "updatedAt": "2017-11-19T10:07:53.105Z"
}